S01300007461736B335F6D6963726F2E73726563B2
S11300000C9434000C9402010C9446000C944600A9
S11300100C9446000C9446000C9446000C94460044
S11300200C9446000C9446000C9446000C94460034
S11300300C9446000C9446000C9446000C94460024
S11300400C9446000C9446000C9446000C94460014
S11300500C9446000C9446000C9446000C94460004
S11300600C9446000C94460011241FBECFEFD8E038
S1130070DEBFCDBF21E0A0E0B1E001C01D92A13000
S1130080B207E1F70E9470000C940A030C9400007C
S11300908295880F880F807CECE7F0E08083808174
S11300A07695762F662777956795682B608383E826
S11300B080937A000895ECE7F0E09081907E90833D
S11300C09081892B8083EAE7F0E0808180648083DB
S11300D0808186FDFDCF809178009091790008950C
S11300E084B18FEF84B987B18C7F87B950985A9ABD
S11300F0509AE9E6F0E080818260808380818E7F7F
S11301008083E89A78941092000160E070E081E0C6
S113011090E00E944800C8E7D0E08091000181305F
S113012091F5198218820E945B00BC0180E090E086
S11301300E94E60120E030E040EA50E40E947902A7
S113014020E030EC4FE754E40E943E0120E030E030
S113015040E251E40E9479020E94B001DC01CB012B
S11301606AE070E00E941601262F372F8F7085B940
S113017085B122953295307F3227207F3227282B74
S113018025B95898CACF80E00E945B00BC0180E08A
S113019090E00E94E60120E030E040EA50E40E9452
S11301A0790220E030EC4FE754E40E943E0120E065
S11301B030E048EC52E40E9479026B017C0120E0BB
S11301C030E040E752E40E947402181614F4589A7E
S11301D001C05898C701B6010E94B001DC01CB01EF
S11301E06AE070E00E941601262F372F8F7085B9C0
S11301F085B122953295307F3227207F3227282BF4
S113020025B98BCF1F920F920FB60F9211248F93A3
S11302109F939091000181E08927809300019F9131
S11302208F910F900FBE0F901F90189597FB072E7C
S113023016F4009407D077FD09D00E942A0107FC28
S113024005D03EF4909581959F4F089570956195E2
S11302507F4F0895AA1BBB1B51E107C0AA1FBB1FF8
S1130260A617B70710F0A61BB70B881F991F5A953E
S1130270A9F780959095BC01CD0108950E94520183
S11302800C943A020E94330258F00E942C0240F06F
S113029029F45F3F29F00C94230251110C946E024F
S11302A00C9429020E944B0268F39923B1F355235D
S11302B091F3951B550BBB27AA2762177307840775
S11302C038F09F5F5F4F220F331F441FAA1FA9F30B
S11302D035D00E2E3AF0E0E832D091505040E695F9
S11302E0001CCAF72BD0FE2F29D0660F771F881F5A
S11302F0BB1F261737074807AB07B0E809F0BB0B4D
S1130300802DBF01FF2793585F4F3AF09E3F510560
S113031078F00C9423020C946E025F3FE4F3983E51
S1130320D4F3869577956795B795F7959F5FC9F749
S1130330880F911D9695879597F90895E1E0660FCA
S1130340771F881FBB1F621773078407BA0720F043
S1130350621B730B840BBA0BEE1F88F7E0950895AC
S11303600E94B7016894B1110C946E0208950E9422
S1130370530288F09F5798F0B92F9927B751B0F0DE
S1130380E1F0660F771F881F991F1AF0BA95C9F715
S113039014C0B13091F00E946D02B1E008950C9444
S11303A06D02672F782F8827B85F39F0B93FCCF3F7
S11303B0869577956795B395D9F73EF49095809592
S11303C0709561957F4F8F4F9F4F0895E89409C0B2
S11303D097FB3EF490958095709561957F4F8F4F74
S11303E09F4F9923A9F0F92F96E9BB279395F6958A
S11303F0879577956795B795F111F8CFFAF4BB0F08
S113040011F460FF1BC06F5F7F4F8F4F9F4F16C06B
S1130410882311F096E911C0772321F09EE8872FF5
S1130420762F05C0662371F096E8862F70E060E0B1
S11304302AF09A95660F771F881FDAF7880F96952A
S1130440879597F9089597F99F6780E870E060E0D1
S113045008959FEF80EC089500240A941616170659
S113046018060906089500240A94121613061406A1
S113047005060895092E0394000C11F4882352F004
S1130480BB0F40F4BF2B11F460FF04C06F5F7F4FBC
S11304908F4F9F4F089557FD9058440F551F59F0A3
S11304A05F3F71F04795880F97FB991F61F09F3F5D
S11304B079F087950895121613061406551FF2CF86
S11304C04695F1DF08C0161617061806991FF1CFD6
S11304D086957105610508940895E894BB276627FD
S11304E07727CB0197F908950E94E60208F48FEF6D
S11304F008950E948C020C943A020E942C0238F057
S11305000E94330220F0952311F00C9423020C94E2
S1130510290211240C946E020E944B0270F3959FE1
S1130520C1F3950F50E0551F629FF001729FBB27E6
S1130530F00DB11D639FAA27F00DB11DAA1F649F82
S11305406627B00DA11D661F829F2227B00DA11D35
S1130550621F739FB00DA11D621F839FA00D611DBB
S1130560221F749F3327A00D611D231F849F600DDC
S1130570211D822F762F6A2F11249F5750409AF005
S1130580F1F088234AF0EE0FFF1FBB1F661F771F91
S1130590881F91505040A9F79E3F510580F00C945C
S11305A023020C946E025F3FE4F3983ED4F38695E5
S11305B077956795B795F795E7959F5FC1F7FE2BFC
S11305C0880F911D9695879597F90895990F0008BE
S11305D0550FAA0BE0E8FEEF16161706E807F90711
S11305E0C0F012161306E407F50798F0621B730BAC
S11305F0840B950B39F40A2661F0232B242B252B2D
S113060021F408950A2609F4A140A6958FEF811DCF
S10B0610811D0895F894FFCF49
S9030000FC
